{
  "contractName": "GeneScience",
  "abi": [
    {
      "constant": true,
      "inputs": [],
      "name": "isGeneScience",
      "outputs": [
        {
          "name": "",
          "type": "bool"
        }
      ],
      "payable": false,
      "stateMutability": "pure",
      "type": "function"
    },
    {
      "constant": true,
      "inputs": [
        {
          "name": "genes1",
          "type": "uint256"
        },
        {
          "name": "genes2",
          "type": "uint256"
        },
        {
          "name": "targetBlock",
          "type": "uint256"
        }
      ],
      "name": "mixGenes",
      "outputs": [
        {
          "name": "",
          "type": "uint256"
        }
      ],
      "payable": false,
      "stateMutability": "pure",
      "type": "function"
    }
  ],
  "bytecode": "0x608060405234801561001057600080fd5b50610116806100206000396000f3006080604052600436106049576000357c0100000000000000000000000000000000000000000000000000000000900463ffffffff1680630d9f5aed14604e57806354c15b821460a0575b600080fd5b348015605957600080fd5b50608a60048036038101908080359060200190929190803590602001909291908035906020019092919050505060cc565b6040518082815260200191505060405180910390f35b34801560ab57600080fd5b5060b260e1565b604051808215151515815260200191505060405180910390f35b60008082848601019050809150509392505050565b600060019050905600a165627a7a7230582052ead05fec8ecd58d32dc4cda8c3fb6d8259e9366485b90c6477b91c5917464c0029",
  "source": "pragma solidity ^0.4.11;\r\n\r\ncontract GeneScience {\r\n    function isGeneScience() public pure returns(bool) {\r\n        return true;\r\n    }\r\n \r\n    function mixGenes(uint256 genes1, uint256 genes2, uint256 targetBlock) public pure returns (uint256) {\r\n        uint256 _targetGene = genes1 + genes2 + targetBlock;\r\n        return _targetGene;\r\n    }\r\n}",
  "sourcePath": "C:\\Users\\xing9\\Documents\\GitHub\\Tron_Idol\\contracts\\GeneScience.sol",
  "compiler": {
    "name": "solc",
    "version": "0.4.24-develop.2018.8.28+commit.3ba0cdec.mod.Emscripten.clang"
  },
  "schemaVersion": "2.0.1",
  "updatedAt": "2018-12-28T08:14:24.798Z"
}