{
  "contractName": "SiringClockAuction",
  "abi": [
    {
      "constant": false,
      "inputs": [],
      "name": "unpause",
      "outputs": [
        {
          "name": "",
          "type": "bool"
        }
      ],
      "payable": false,
      "stateMutability": "nonpayable",
      "type": "function"
    },
    {
      "constant": true,
      "inputs": [],
      "name": "paused",
      "outputs": [
        {
          "name": "",
          "type": "bool"
        }
      ],
      "payable": false,
      "stateMutability": "view",
      "type": "function"
    },
    {
      "constant": false,
      "inputs": [],
      "name": "withdrawBalance",
      "outputs": [],
      "payable": false,
      "stateMutability": "nonpayable",
      "type": "function"
    },
    {
      "constant": true,
      "inputs": [],
      "name": "isSiringClockAuction",
      "outputs": [
        {
          "name": "",
          "type": "bool"
        }
      ],
      "payable": false,
      "stateMutability": "view",
      "type": "function"
    },
    {
      "constant": true,
      "inputs": [
        {
          "name": "_tokenId",
          "type": "uint256"
        }
      ],
      "name": "getAuction",
      "outputs": [
        {
          "name": "seller",
          "type": "address"
        },
        {
          "name": "startingPrice",
          "type": "uint256"
        },
        {
          "name": "endingPrice",
          "type": "uint256"
        },
        {
          "name": "duration",
          "type": "uint256"
        },
        {
          "name": "startedAt",
          "type": "uint256"
        }
      ],
      "payable": false,
      "stateMutability": "view",
      "type": "function"
    },
    {
      "constant": true,
      "inputs": [],
      "name": "ownerCut",
      "outputs": [
        {
          "name": "",
          "type": "uint256"
        }
      ],
      "payable": false,
      "stateMutability": "view",
      "type": "function"
    },
    {
      "constant": false,
      "inputs": [],
      "name": "pause",
      "outputs": [
        {
          "name": "",
          "type": "bool"
        }
      ],
      "payable": false,
      "stateMutability": "nonpayable",
      "type": "function"
    },
    {
      "constant": false,
      "inputs": [
        {
          "name": "_tokenId",
          "type": "uint256"
        }
      ],
      "name": "cancelAuctionWhenPaused",
      "outputs": [],
      "payable": false,
      "stateMutability": "nonpayable",
      "type": "function"
    },
    {
      "constant": true,
      "inputs": [],
      "name": "owner",
      "outputs": [
        {
          "name": "",
          "type": "address"
        }
      ],
      "payable": false,
      "stateMutability": "view",
      "type": "function"
    },
    {
      "constant": false,
      "inputs": [
        {
          "name": "_tokenId",
          "type": "uint256"
        }
      ],
      "name": "cancelAuction",
      "outputs": [],
      "payable": false,
      "stateMutability": "nonpayable",
      "type": "function"
    },
    {
      "constant": true,
      "inputs": [
        {
          "name": "_tokenId",
          "type": "uint256"
        }
      ],
      "name": "getCurrentPrice",
      "outputs": [
        {
          "name": "",
          "type": "uint256"
        }
      ],
      "payable": false,
      "stateMutability": "view",
      "type": "function"
    },
    {
      "constant": true,
      "inputs": [],
      "name": "nonFungibleContract",
      "outputs": [
        {
          "name": "",
          "type": "address"
        }
      ],
      "payable": false,
      "stateMutability": "view",
      "type": "function"
    },
    {
      "constant": false,
      "inputs": [
        {
          "name": "newOwner",
          "type": "address"
        }
      ],
      "name": "transferOwnership",
      "outputs": [],
      "payable": false,
      "stateMutability": "nonpayable",
      "type": "function"
    },
    {
      "inputs": [],
      "payable": false,
      "stateMutability": "nonpayable",
      "type": "constructor"
    },
    {
      "anonymous": false,
      "inputs": [
        {
          "indexed": false,
          "name": "tokenId",
          "type": "uint256"
        },
        {
          "indexed": false,
          "name": "startingPrice",
          "type": "uint256"
        },
        {
          "indexed": false,
          "name": "endingPrice",
          "type": "uint256"
        },
        {
          "indexed": false,
          "name": "duration",
          "type": "uint256"
        }
      ],
      "name": "AuctionCreated",
      "type": "event"
    },
    {
      "anonymous": false,
      "inputs": [
        {
          "indexed": false,
          "name": "tokenId",
          "type": "uint256"
        },
        {
          "indexed": false,
          "name": "totalPrice",
          "type": "uint256"
        },
        {
          "indexed": false,
          "name": "winner",
          "type": "address"
        }
      ],
      "name": "AuctionSuccessful",
      "type": "event"
    },
    {
      "anonymous": false,
      "inputs": [
        {
          "indexed": false,
          "name": "tokenId",
          "type": "uint256"
        }
      ],
      "name": "AuctionCancelled",
      "type": "event"
    },
    {
      "anonymous": false,
      "inputs": [],
      "name": "Pause",
      "type": "event"
    },
    {
      "anonymous": false,
      "inputs": [],
      "name": "Unpause",
      "type": "event"
    },
    {
      "constant": false,
      "inputs": [
        {
          "name": "_tokenId",
          "type": "uint256"
        },
        {
          "name": "_startingPrice",
          "type": "uint256"
        },
        {
          "name": "_endingPrice",
          "type": "uint256"
        },
        {
          "name": "_duration",
          "type": "uint256"
        },
        {
          "name": "_seller",
          "type": "address"
        }
      ],
      "name": "createAuction",
      "outputs": [],
      "payable": false,
      "stateMutability": "nonpayable",
      "type": "function"
    },
    {
      "constant": false,
      "inputs": [
        {
          "name": "_tokenId",
          "type": "uint256"
        }
      ],
      "name": "bid",
      "outputs": [],
      "payable": true,
      "stateMutability": "payable",
      "type": "function"
    }
  ],
  "bytecode": "0x608060405260008060146101000a81548160ff0219169083151502179055506001600460006101000a81548160ff02191690831515021790555034801561004557600080fd5b507441b4f8413520f0a92b279c17fae1df92b1883791dc600080336000806101000a81548173ffffffffffffffffffffffffffffffffffffffff021916908373ffffffffffffffffffffffffffffffffffffffff16021790555061271082111515156100b057600080fd5b816002819055508290508073ffffffffffffffffffffffffffffffffffffffff166301ffc9a7639a20483d7c0100000000000000000000000000000000000000000000000000000000026040518263ffffffff167c010000000000000000000000000000000000000000000000000000000002815260040180827bffffffffffffffffffffffffffffffffffffffffffffffffffffffff19167bffffffffffffffffffffffffffffffffffffffffffffffffffffffff19168152602001915050602060405180830381600087803b15801561018a57600080fd5b505af115801561019e573d6000803e3d6000fd5b505050506040513d60208110156101b457600080fd5b810190808051906020019092919050505015156101d057600080fd5b80600160006101000a81548173ffffffffffffffffffffffffffffffffffffffff021916908373ffffffffffffffffffffffffffffffffffffffff1602179055505050506115e7806102236000396000f3006080604052600436106100db576000357c0100000000000000000000000000000000000000000000000000000000900463ffffffff16806327ebe40a146100e05780633f4ba83a1461014b578063454a2ab31461017a5780635c975abb1461019a5780635fd8c710146101c957806376190f8f146101e057806378bd79351461020f57806383b5ff8b146102985780638456cb59146102c3578063878eb368146102f25780638da5cb5b1461031f57806396b5a75514610376578063c55d0f56146103a3578063dd1b7a0f146103e4578063f2fde38b1461043b575b600080fd5b3480156100ec57600080fd5b5061014960048036038101908080359060200190929190803590602001909291908035906020019092919080359060200190929190803573ffffffffffffffffffffffffffffffffffffffff16906020019092919050505061047e565b005b34801561015757600080fd5b506101606105ce565b604051808215151515815260200191505060405180910390f35b61019860048036038101908080359060200190929190505050610693565b005b3480156101a657600080fd5b506101af610743565b604051808215151515815260200191505060405180910390f35b3480156101d557600080fd5b506101de610756565b005b3480156101ec57600080fd5b506101f5610861565b604051808215151515815260200191505060405180910390f35b34801561021b57600080fd5b5061023a60048036038101908080359060200190929190505050610874565b604051808673ffffffffffffffffffffffffffffffffffffffff1673ffffffffffffffffffffffffffffffffffffffff1681526020018581526020018481526020018381526020018281526020019550505050505060405180910390f35b3480156102a457600080fd5b506102ad610997565b6040518082815260200191505060405180910390f35b3480156102cf57600080fd5b506102d861099d565b604051808215151515815260200191505060405180910390f35b3480156102fe57600080fd5b5061031d60048036038101908080359060200190929190505050610a64565b005b34801561032b57600080fd5b50610334610b36565b604051808273ffffffffffffffffffffffffffffffffffffffff1673ffffffffffffffffffffffffffffffffffffffff16815260200191505060405180910390f35b34801561038257600080fd5b506103a160048036038101908080359060200190929190505050610b5b565b005b3480156103af57600080fd5b506103ce60048036038101908080359060200190929190505050610bf7565b6040518082815260200191505060405180910390f35b3480156103f057600080fd5b506103f9610c34565b604051808273ffffffffffffffffffffffffffffffffffffffff1673ffffffffffffffffffffffffffffffffffffffff16815260200191505060405180910390f35b34801561044757600080fd5b5061047c600480360381019080803573ffffffffffffffffffffffffffffffffffffffff169060200190929190505050610c5a565b005b61048661153d565b846fffffffffffffffffffffffffffffffff16851415156104a657600080fd5b836fffffffffffffffffffffffffffffffff16841415156104c657600080fd5b8267ffffffffffffffff16831415156104de57600080fd5b600160009054906101000a900473ffffffffffffffffffffffffffffffffffffffff1673ffffffffffffffffffffffffffffffffffffffff163373ffffffffffffffffffffffffffffffffffffffff1614151561053a57600080fd5b6105448287610d2f565b60a0604051908101604052808373ffffffffffffffffffffffffffffffffffffffff168152602001866fffffffffffffffffffffffffffffffff168152602001856fffffffffffffffffffffffffffffffff1681526020018467ffffffffffffffff1681526020014267ffffffffffffffff1681525090506105c68682610e44565b505050505050565b60008060009054906101000a900473ffffffffffffffffffffffffffffffffffffffff1673ffffffffffffffffffffffffffffffffffffffff163373ffffffffffffffffffffffffffffffffffffffff1614151561062b57600080fd5b600060149054906101000a900460ff16151561064657600080fd5b60008060146101000a81548160ff0219169083151502179055507f7805862f689e2f13df9f062ff482ad3ad112aca9e0847911ed832e158c525b3360405160405180910390a16001905090565b6000600160009054906101000a900473ffffffffffffffffffffffffffffffffffffffff1673ffffffffffffffffffffffffffffffffffffffff163373ffffffffffffffffffffffffffffffffffffffff161415156106f157600080fd5b6003600083815260200190815260200160002060000160009054906101000a900473ffffffffffffffffffffffffffffffffffffffff1690506107348234611029565b5061073f81836111d6565b5050565b600060149054906101000a900460ff1681565b600080600160009054906101000a900473ffffffffffffffffffffffffffffffffffffffff1691506000809054906101000a900473ffffffffffffffffffffffffffffffffffffffff1673ffffffffffffffffffffffffffffffffffffffff163373ffffffffffffffffffffffffffffffffffffffff16148061080457508173ffffffffffffffffffffffffffffffffffffffff163373ffffffffffffffffffffffffffffffffffffffff16145b151561080f57600080fd5b8173ffffffffffffffffffffffffffffffffffffffff166108fc3073ffffffffffffffffffffffffffffffffffffffff16319081150290604051600060405180830381858888f1935050505090505050565b600460009054906101000a900460ff1681565b60008060008060008060036000888152602001908152602001600020905061089b816112b7565b15156108a657600080fd5b8060000160009054906101000a900473ffffffffffffffffffffffffffffffffffffffff168160010160009054906101000a90046fffffffffffffffffffffffffffffffff168260010160109054906101000a90046fffffffffffffffffffffffffffffffff168360020160009054906101000a900467ffffffffffffffff168460020160089054906101000a900467ffffffffffffffff16836fffffffffffffffffffffffffffffffff169350826fffffffffffffffffffffffffffffffff1692508167ffffffffffffffff1691508067ffffffffffffffff169050955095509550955095505091939590929450565b60025481565b60008060009054906101000a900473ffffffffffffffffffffffffffffffffffffffff1673ffffffffffffffffffffffffffffffffffffffff163373ffffffffffffffffffffffffffffffffffffffff161415156109fa57600080fd5b600060149054906101000a900460ff16151515610a1657600080fd5b6001600060146101000a81548160ff0219169083151502179055507f6985a02210a168e66602d3235cb6db0e70f92b3ba4d376a33c0f3d9434bff62560405160405180910390a16001905090565b60008060149054906101000a900460ff161515610a8057600080fd5b6000809054906101000a900473ffffffffffffffffffffffffffffffffffffffff1673ffffffffffffffffffffffffffffffffffffffff163373ffffffffffffffffffffffffffffffffffffffff16141515610adb57600080fd5b600360008381526020019081526020016000209050610af9816112b7565b1515610b0457600080fd5b610b32828260000160009054906101000a900473ffffffffffffffffffffffffffffffffffffffff166112e5565b5050565b6000809054906101000a900473ffffffffffffffffffffffffffffffffffffffff1681565b600080600360008481526020019081526020016000209150610b7c826112b7565b1515610b8757600080fd5b8160000160009054906101000a900473ffffffffffffffffffffffffffffffffffffffff1690508073ffffffffffffffffffffffffffffffffffffffff163373ffffffffffffffffffffffffffffffffffffffff16141515610be857600080fd5b610bf283826112e5565b505050565b600080600360008481526020019081526020016000209050610c18816112b7565b1515610c2357600080fd5b610c2c81611333565b915050919050565b600160009054906101000a900473ffffffffffffffffffffffffffffffffffffffff1681565b6000809054906101000a900473ffffffffffffffffffffffffffffffffffffffff1673ffffffffffffffffffffffffffffffffffffffff163373ffffffffffffffffffffffffffffffffffffffff16141515610cb557600080fd5b600073ffffffffffffffffffffffffffffffffffffffff168173ffffffffffffffffffffffffffffffffffffffff16141515610d2c57806000806101000a81548173ffffffffffffffffffffffffffffffffffffffff021916908373ffffffffffffffffffffffffffffffffffffffff1602179055505b50565b600160009054906101000a900473ffffffffffffffffffffffffffffffffffffffff1673ffffffffffffffffffffffffffffffffffffffff166323b872dd8330846040518463ffffffff167c0100000000000000000000000000000000000000000000000000000000028152600401808473ffffffffffffffffffffffffffffffffffffffff1673ffffffffffffffffffffffffffffffffffffffff1681526020018373ffffffffffffffffffffffffffffffffffffffff1673ffffffffffffffffffffffffffffffffffffffff1681526020018281526020019350505050600060405180830381600087803b158015610e2857600080fd5b505af1158015610e3c573d6000803e3d6000fd5b505050505050565b603c816060015167ffffffffffffffff1610151515610e6257600080fd5b806003600084815260200190815260200160002060008201518160000160006101000a81548173ffffffffffffffffffffffffffffffffffffffff021916908373ffffffffffffffffffffffffffffffffffffffff16021790555060208201518160010160006101000a8154816fffffffffffffffffffffffffffffffff02191690836fffffffffffffffffffffffffffffffff16021790555060408201518160010160106101000a8154816fffffffffffffffffffffffffffffffff02191690836fffffffffffffffffffffffffffffffff16021790555060608201518160020160006101000a81548167ffffffffffffffff021916908367ffffffffffffffff16021790555060808201518160020160086101000a81548167ffffffffffffffff021916908367ffffffffffffffff1602179055509050507fa9c8dfcda5664a5a124c713e386da27de87432d5b668e79458501eb296389ba78282602001516fffffffffffffffffffffffffffffffff1683604001516fffffffffffffffffffffffffffffffff16846060015167ffffffffffffffff166040518085815260200184815260200183815260200182815260200194505050505060405180910390a15050565b6000806000806000806000600360008a81526020019081526020016000209550611052866112b7565b151561105d57600080fd5b61106686611333565b945084881015151561107757600080fd5b8560000160009054906101000a900473ffffffffffffffffffffffffffffffffffffffff1693506110a789611426565b6000851115611108576110b9856114e2565b925082850391508373ffffffffffffffffffffffffffffffffffffffff166108fc839081150290604051600060405180830381858888f19350505050158015611106573d6000803e3d6000fd5b505b84880390503373ffffffffffffffffffffffffffffffffffffffff166108fc829081150290604051600060405180830381858888f19350505050158015611153573d6000803e3d6000fd5b507f4fcc30d90a842164dd58501ab874a101a3749c3d4747139cefe7c876f4ccebd2898633604051808481526020018381526020018273ffffffffffffffffffffffffffffffffffffffff1673ffffffffffffffffffffffffffffffffffffffff168152602001935050505060405180910390a184965050505050505092915050565b600160009054906101000a900473ffffffffffffffffffffffffffffffffffffffff1673ffffffffffffffffffffffffffffffffffffffff1663a9059cbb83836040518363ffffffff167c0100000000000000000000000000000000000000000000000000000000028152600401808373ffffffffffffffffffffffffffffffffffffffff1673ffffffffffffffffffffffffffffffffffffffff16815260200182815260200192505050600060405180830381600087803b15801561129b57600080fd5b505af11580156112af573d6000803e3d6000fd5b505050505050565b6000808260020160089054906101000a900467ffffffffffffffff1667ffffffffffffffff16119050919050565b6112ee82611426565b6112f881836111d6565b7f2809c7e17bf978fbc7194c0a694b638c4215e9140cacc6c38ca36010b45697df826040518082815260200191505060405180910390a15050565b600080600090508260020160089054906101000a900467ffffffffffffffff1667ffffffffffffffff1642111561138c578260020160089054906101000a900467ffffffffffffffff1667ffffffffffffffff16420390505b61141e8360010160009054906101000a90046fffffffffffffffffffffffffffffffff166fffffffffffffffffffffffffffffffff168460010160109054906101000a90046fffffffffffffffffffffffffffffffff166fffffffffffffffffffffffffffffffff168560020160009054906101000a900467ffffffffffffffff1667ffffffffffffffff16846114fd565b915050919050565b60036000828152602001908152602001600020600080820160006101000a81549073ffffffffffffffffffffffffffffffffffffffff02191690556001820160006101000a8154906fffffffffffffffffffffffffffffffff02191690556001820160106101000a8154906fffffffffffffffffffffffffffffffff02191690556002820160006101000a81549067ffffffffffffffff02191690556002820160086101000a81549067ffffffffffffffff0219169055505050565b600061271060025483028115156114f557fe5b049050919050565b600080600080858510151561151457869350611532565b87870392508585840281151561152657fe5b05915081880190508093505b505050949350505050565b60a060405190810160405280600073ffffffffffffffffffffffffffffffffffffffff16815260200160006fffffffffffffffffffffffffffffffff16815260200160006fffffffffffffffffffffffffffffffff168152602001600067ffffffffffffffff168152602001600067ffffffffffffffff16815250905600a165627a7a72305820996c1ee06eac8a1ad113b5c8e04eba3e095a163c99800f3208d752819a3a17760029",
  "source": "pragma solidity ^0.4.11;\r\n\r\n\r\n/**\r\n * @title Ownable\r\n * @dev The Ownable contract has an owner address, and provides basic authorization control\r\n * functions, this simplifies the implementation of \"user permissions\".\r\n */\r\ncontract Ownable {\r\n  address public owner;\r\n\r\n\r\n  /**\r\n   * @dev The Ownable constructor sets the original `owner` of the contract to the sender\r\n   * account.\r\n   */\r\n  function Ownable() {\r\n    owner = msg.sender;\r\n  }\r\n\r\n\r\n  /**\r\n   * @dev Throws if called by any account other than the owner.\r\n   */\r\n  modifier onlyOwner() {\r\n    require(msg.sender == owner);\r\n    _;\r\n  }\r\n\r\n\r\n  /**\r\n   * @dev Allows the current owner to transfer control of the contract to a newOwner.\r\n   * @param newOwner The address to transfer ownership to.\r\n   */\r\n  function transferOwnership(address newOwner) onlyOwner {\r\n    if (newOwner != address(0)) {\r\n      owner = newOwner;\r\n    }\r\n  }\r\n\r\n}\r\n\r\n\r\n\r\n/// @title Interface for contracts conforming to ERC-721: Non-Fungible Tokens\r\n/// @author Dieter Shirley <dete@axiomzen.co> (https://github.com/dete)\r\ncontract ERC721 {\r\n    // Required methods\r\n    function totalSupply() public view returns (uint256 total);\r\n    function balanceOf(address _owner) public view returns (uint256 balance);\r\n    function ownerOf(uint256 _tokenId) external view returns (address owner);\r\n    function approve(address _to, uint256 _tokenId) external;\r\n    function transfer(address _to, uint256 _tokenId) external;\r\n    function transferFrom(address _from, address _to, uint256 _tokenId) external;\r\n\r\n    // Events\r\n    event Transfer(address from, address to, uint256 tokenId);\r\n    event Approval(address owner, address approved, uint256 tokenId);\r\n\r\n    // Optional\r\n    // function name() public view returns (string name);\r\n    // function symbol() public view returns (string symbol);\r\n    // function tokensOfOwner(address _owner) external view returns (uint256[] tokenIds);\r\n    // function tokenMetadata(uint256 _tokenId, string _preferredTransport) public view returns (string infoUrl);\r\n\r\n    // ERC-165 Compatibility (https://github.com/ethereum/EIPs/issues/165)\r\n    function supportsInterface(bytes4 _interfaceID) external view returns (bool);\r\n}\r\n\r\n\r\n// // Auction wrapper functions\r\n\r\n\r\n// Auction wrapper functions\r\n\r\n\r\n\r\n\r\n\r\n\r\n\r\n/// @title The external contract that is responsible for generating metadata for the kitties,\r\n///  it has one function that will return the data as bytes.\r\ncontract ERC721Metadata {\r\n    /// @dev Given a token Id, returns a byte array that is supposed to be converted into string.\r\n    function getMetadata(uint256 _tokenId, string) public view returns (bytes32[4] buffer, uint256 count) {\r\n        if (_tokenId == 1) {\r\n            buffer[0] = \"Hello World! :D\";\r\n            count = 15;\r\n        } else if (_tokenId == 2) {\r\n            buffer[0] = \"I would definitely choose a medi\";\r\n            buffer[1] = \"um length string.\";\r\n            count = 49;\r\n        } else if (_tokenId == 3) {\r\n            buffer[0] = \"Lorem ipsum dolor sit amet, mi e\";\r\n            buffer[1] = \"st accumsan dapibus augue lorem,\";\r\n            buffer[2] = \" tristique vestibulum id, libero\";\r\n            buffer[3] = \" suscipit varius sapien aliquam.\";\r\n            count = 128;\r\n        }\r\n    }\r\n}\r\n\r\n\r\n\r\n\r\n\r\n/// @title Auction Core\r\n/// @dev Contains models, variables, and internal methods for the auction.\r\n/// @notice We omit a fallback function to prevent accidental sends to this contract.\r\ncontract ClockAuctionBase {\r\n\r\n    // Represents an auction on an NFT\r\n    struct Auction {\r\n        // Current owner of NFT\r\n        address seller;\r\n        // Price (in wei) at beginning of auction\r\n        uint128 startingPrice;\r\n        // Price (in wei) at end of auction\r\n        uint128 endingPrice;\r\n        // Duration (in seconds) of auction\r\n        uint64 duration;\r\n        // Time when auction started\r\n        // NOTE: 0 if this auction has been concluded\r\n        uint64 startedAt;\r\n    }\r\n\r\n    // Reference to contract tracking NFT ownership\r\n    ERC721 public nonFungibleContract;\r\n\r\n    // Cut owner takes on each auction, measured in basis points (1/100 of a percent).\r\n    // Values 0-10,000 map to 0%-100%\r\n    uint256 public ownerCut;\r\n\r\n    // Map from token ID to their corresponding auction.\r\n    mapping (uint256 => Auction) tokenIdToAuction;\r\n\r\n    event AuctionCreated(uint256 tokenId, uint256 startingPrice, uint256 endingPrice, uint256 duration);\r\n    event AuctionSuccessful(uint256 tokenId, uint256 totalPrice, address winner);\r\n    event AuctionCancelled(uint256 tokenId);\r\n\r\n    /// @dev Returns true if the claimant owns the token.\r\n    /// @param _claimant - Address claiming to own the token.\r\n    /// @param _tokenId - ID of token whose ownership to verify.\r\n    function _owns(address _claimant, uint256 _tokenId) internal view returns (bool) {\r\n        return (nonFungibleContract.ownerOf(_tokenId) == _claimant);\r\n    }\r\n\r\n    /// @dev Escrows the NFT, assigning ownership to this contract.\r\n    /// Throws if the escrow fails.\r\n    /// @param _owner - Current owner address of token to escrow.\r\n    /// @param _tokenId - ID of token whose approval to verify.\r\n    function _escrow(address _owner, uint256 _tokenId) internal {\r\n        // it will throw if transfer fails\r\n        nonFungibleContract.transferFrom(_owner, this, _tokenId);\r\n    }\r\n\r\n    /// @dev Transfers an NFT owned by this contract to another address.\r\n    /// Returns true if the transfer succeeds.\r\n    /// @param _receiver - Address to transfer NFT to.\r\n    /// @param _tokenId - ID of token to transfer.\r\n    function _transfer(address _receiver, uint256 _tokenId) internal {\r\n        // it will throw if transfer fails\r\n        nonFungibleContract.transfer(_receiver, _tokenId);\r\n    }\r\n\r\n    /// @dev Adds an auction to the list of open auctions. Also fires the\r\n    ///  AuctionCreated event.\r\n    /// @param _tokenId The ID of the token to be put on auction.\r\n    /// @param _auction Auction to add.\r\n    function _addAuction(uint256 _tokenId, Auction _auction) internal {\r\n        // Require that all auctions have a duration of\r\n        // at least one minute. (Keeps our math from getting hairy!)\r\n        require(_auction.duration >= 1 minutes);\r\n\r\n        tokenIdToAuction[_tokenId] = _auction;\r\n\r\n        AuctionCreated(\r\n            uint256(_tokenId),\r\n            uint256(_auction.startingPrice),\r\n            uint256(_auction.endingPrice),\r\n            uint256(_auction.duration)\r\n        );\r\n    }\r\n\r\n    /// @dev Cancels an auction unconditionally.\r\n    function _cancelAuction(uint256 _tokenId, address _seller) internal {\r\n        _removeAuction(_tokenId);\r\n        _transfer(_seller, _tokenId);\r\n        AuctionCancelled(_tokenId);\r\n    }\r\n\r\n    /// @dev Computes the price and transfers winnings.\r\n    /// Does NOT transfer ownership of token.\r\n    function _bid(uint256 _tokenId, uint256 _bidAmount)\r\n        internal\r\n        returns (uint256)\r\n    {\r\n        // Get a reference to the auction struct\r\n        Auction storage auction = tokenIdToAuction[_tokenId];\r\n\r\n        // Explicitly check that this auction is currently live.\r\n        // (Because of how Ethereum mappings work, we can't just count\r\n        // on the lookup above failing. An invalid _tokenId will just\r\n        // return an auction object that is all zeros.)\r\n        require(_isOnAuction(auction));\r\n\r\n        // Check that the bid is greater than or equal to the current price\r\n        uint256 price = _currentPrice(auction);\r\n        require(_bidAmount >= price);\r\n\r\n        // Grab a reference to the seller before the auction struct\r\n        // gets deleted.\r\n        address seller = auction.seller;\r\n\r\n        // The bid is good! Remove the auction before sending the fees\r\n        // to the sender so we can't have a reentrancy attack.\r\n        _removeAuction(_tokenId);\r\n\r\n        // Transfer proceeds to seller (if there are any!)\r\n        if (price > 0) {\r\n            // Calculate the auctioneer's cut.\r\n            // (NOTE: _computeCut() is guaranteed to return a\r\n            // value <= price, so this subtraction can't go negative.)\r\n            uint256 auctioneerCut = _computeCut(price);\r\n            uint256 sellerProceeds = price - auctioneerCut;\r\n\r\n            // NOTE: Doing a transfer() in the middle of a complex\r\n            // method like this is generally discouraged because of\r\n            // reentrancy attacks and DoS attacks if the seller is\r\n            // a contract with an invalid fallback function. We explicitly\r\n            // guard against reentrancy attacks by removing the auction\r\n            // before calling transfer(), and the only thing the seller\r\n            // can DoS is the sale of their own asset! (And if it's an\r\n            // accident, they can call cancelAuction(). )\r\n            seller.transfer(sellerProceeds);\r\n        }\r\n\r\n        // Calculate any excess funds included with the bid. If the excess\r\n        // is anything worth worrying about, transfer it back to bidder.\r\n        // NOTE: We checked above that the bid amount is greater than or\r\n        // equal to the price so this cannot underflow.\r\n        uint256 bidExcess = _bidAmount - price;\r\n\r\n        // Return the funds. Similar to the previous transfer, this is\r\n        // not susceptible to a re-entry attack because the auction is\r\n        // removed before any transfers occur.\r\n        msg.sender.transfer(bidExcess);\r\n\r\n        // Tell the world!\r\n        AuctionSuccessful(_tokenId, price, msg.sender);\r\n\r\n        return price;\r\n    }\r\n\r\n    /// @dev Removes an auction from the list of open auctions.\r\n    /// @param _tokenId - ID of NFT on auction.\r\n    function _removeAuction(uint256 _tokenId) internal {\r\n        delete tokenIdToAuction[_tokenId];\r\n    }\r\n\r\n    /// @dev Returns true if the NFT is on auction.\r\n    /// @param _auction - Auction to check.\r\n    function _isOnAuction(Auction storage _auction) internal view returns (bool) {\r\n        return (_auction.startedAt > 0);\r\n    }\r\n\r\n    /// @dev Returns current price of an NFT on auction. Broken into two\r\n    ///  functions (this one, that computes the duration from the auction\r\n    ///  structure, and the other that does the price computation) so we\r\n    ///  can easily test that the price computation works correctly.\r\n    function _currentPrice(Auction storage _auction)\r\n        internal\r\n        view\r\n        returns (uint256)\r\n    {\r\n        uint256 secondsPassed = 0;\r\n\r\n        // A bit of insurance against negative values (or wraparound).\r\n        // Probably not necessary (since Ethereum guarnatees that the\r\n        // now variable doesn't ever go backwards).\r\n        if (now > _auction.startedAt) {\r\n            secondsPassed = now - _auction.startedAt;\r\n        }\r\n\r\n        return _computeCurrentPrice(\r\n            _auction.startingPrice,\r\n            _auction.endingPrice,\r\n            _auction.duration,\r\n            secondsPassed\r\n        );\r\n    }\r\n\r\n    /// @dev Computes the current price of an auction. Factored out\r\n    ///  from _currentPrice so we can run extensive unit tests.\r\n    ///  When testing, make this function public and turn on\r\n    ///  `Current price computation` test suite.\r\n    function _computeCurrentPrice(\r\n        uint256 _startingPrice,\r\n        uint256 _endingPrice,\r\n        uint256 _duration,\r\n        uint256 _secondsPassed\r\n    )\r\n        internal\r\n        pure\r\n        returns (uint256)\r\n    {\r\n        // NOTE: We don't use SafeMath (or similar) in this function because\r\n        //  all of our public functions carefully cap the maximum values for\r\n        //  time (at 64-bits) and currency (at 128-bits). _duration is\r\n        //  also known to be non-zero (see the require() statement in\r\n        //  _addAuction())\r\n        if (_secondsPassed >= _duration) {\r\n            // We've reached the end of the dynamic pricing portion\r\n            // of the auction, just return the end price.\r\n            return _endingPrice;\r\n        } else {\r\n            // Starting price can be higher than ending price (and often is!), so\r\n            // this delta can be negative.\r\n            int256 totalPriceChange = int256(_endingPrice) - int256(_startingPrice);\r\n\r\n            // This multiplication can't overflow, _secondsPassed will easily fit within\r\n            // 64-bits, and totalPriceChange will easily fit within 128-bits, their product\r\n            // will always fit within 256-bits.\r\n            int256 currentPriceChange = totalPriceChange * int256(_secondsPassed) / int256(_duration);\r\n\r\n            // currentPriceChange can be negative, but if so, will have a magnitude\r\n            // less that _startingPrice. Thus, this result will always end up positive.\r\n            int256 currentPrice = int256(_startingPrice) + currentPriceChange;\r\n\r\n            return uint256(currentPrice);\r\n        }\r\n    }\r\n\r\n    /// @dev Computes owner's cut of a sale.\r\n    /// @param _price - Sale price of NFT.\r\n    function _computeCut(uint256 _price) internal view returns (uint256) {\r\n        // NOTE: We don't use SafeMath (or similar) in this function because\r\n        //  all of our entry functions carefully cap the maximum values for\r\n        //  currency (at 128-bits), and ownerCut <= 10000 (see the require()\r\n        //  statement in the ClockAuction constructor). The result of this\r\n        //  function is always guaranteed to be <= _price.\r\n        return _price * ownerCut / 10000;\r\n    }\r\n\r\n}\r\n\r\n\r\n\r\n\r\n\r\n\r\n\r\n/**\r\n * @title Pausable\r\n * @dev Base contract which allows children to implement an emergency stop mechanism.\r\n */\r\ncontract Pausable is Ownable {\r\n  event Pause();\r\n  event Unpause();\r\n\r\n  bool public paused = false;\r\n\r\n\r\n  /**\r\n   * @dev modifier to allow actions only when the contract IS paused\r\n   */\r\n  modifier whenNotPaused() {\r\n    require(!paused);\r\n    _;\r\n  }\r\n\r\n  /**\r\n   * @dev modifier to allow actions only when the contract IS NOT paused\r\n   */\r\n  modifier whenPaused {\r\n    require(paused);\r\n    _;\r\n  }\r\n\r\n  /**\r\n   * @dev called by the owner to pause, triggers stopped state\r\n   */\r\n  function pause() onlyOwner whenNotPaused returns (bool) {\r\n    paused = true;\r\n    Pause();\r\n    return true;\r\n  }\r\n\r\n  /**\r\n   * @dev called by the owner to unpause, returns to normal state\r\n   */\r\n  function unpause() onlyOwner whenPaused returns (bool) {\r\n    paused = false;\r\n    Unpause();\r\n    return true;\r\n  }\r\n}\r\n\r\n\r\n/// @title Clock auction for non-fungible tokens.\r\n/// @notice We omit a fallback function to prevent accidental sends to this contract.\r\ncontract ClockAuction is Pausable, ClockAuctionBase {\r\n\r\n    /// @dev The ERC-165 interface signature for ERC-721.\r\n    ///  Ref: https://github.com/ethereum/EIPs/issues/165\r\n    ///  Ref: https://github.com/ethereum/EIPs/issues/721\r\n    bytes4 constant InterfaceSignature_ERC721 = bytes4(0x9a20483d);\r\n\r\n    /// @dev Constructor creates a reference to the NFT ownership contract\r\n    ///  and verifies the owner cut is in the valid range.\r\n    /// @param _nftAddress - address of a deployed contract implementing\r\n    ///  the Nonfungible Interface.\r\n    /// @param _cut - percent cut the owner takes on each auction, must be\r\n    ///  between 0-10,000.\r\n    function ClockAuction(address _nftAddress, uint256 _cut) public {\r\n        require(_cut <= 10000);\r\n        ownerCut = _cut;\r\n\r\n        ERC721 candidateContract = ERC721(_nftAddress);\r\n        require(candidateContract.supportsInterface(InterfaceSignature_ERC721));\r\n        nonFungibleContract = candidateContract;\r\n    }\r\n\r\n    /// @dev Remove all Ether from the contract, which is the owner's cuts\r\n    ///  as well as any Ether sent directly to the contract address.\r\n    ///  Always transfers to the NFT contract, but can be called either by\r\n    ///  the owner or the NFT contract.\r\n    function withdrawBalance() external {\r\n        address nftAddress = address(nonFungibleContract);\r\n\r\n        require(\r\n            msg.sender == owner ||\r\n            msg.sender == nftAddress\r\n        );\r\n        // We are using this boolean method to make sure that even if one fails it will still work\r\n        bool res = nftAddress.send(this.balance);\r\n    }\r\n\r\n    /// @dev Creates and begins a new auction.\r\n    /// @param _tokenId - ID of token to auction, sender must be owner.\r\n    /// @param _startingPrice - Price of item (in wei) at beginning of auction.\r\n    /// @param _endingPrice - Price of item (in wei) at end of auction.\r\n    /// @param _duration - Length of time to move between starting\r\n    ///  price and ending price (in seconds).\r\n    /// @param _seller - Seller, if not the message sender\r\n    function createAuction(\r\n        uint256 _tokenId,\r\n        uint256 _startingPrice,\r\n        uint256 _endingPrice,\r\n        uint256 _duration,\r\n        address _seller\r\n    )\r\n        external\r\n        whenNotPaused\r\n    {\r\n        // Sanity check that no inputs overflow how many bits we've allocated\r\n        // to store them in the auction struct.\r\n        require(_startingPrice == uint256(uint128(_startingPrice)));\r\n        require(_endingPrice == uint256(uint128(_endingPrice)));\r\n        require(_duration == uint256(uint64(_duration)));\r\n\r\n        require(_owns(msg.sender, _tokenId));\r\n        _escrow(msg.sender, _tokenId);\r\n        Auction memory auction = Auction(\r\n            _seller,\r\n            uint128(_startingPrice),\r\n            uint128(_endingPrice),\r\n            uint64(_duration),\r\n            uint64(now)\r\n        );\r\n        _addAuction(_tokenId, auction);\r\n    }\r\n\r\n    /// @dev Bids on an open auction, completing the auction and transferring\r\n    ///  ownership of the NFT if enough Ether is supplied.\r\n    /// @param _tokenId - ID of token to bid on.\r\n    function bid(uint256 _tokenId)\r\n        external\r\n        payable\r\n        whenNotPaused\r\n    {\r\n        // _bid will throw if the bid or funds transfer fails\r\n        _bid(_tokenId, msg.value);\r\n        _transfer(msg.sender, _tokenId);\r\n    }\r\n\r\n    /// @dev Cancels an auction that hasn't been won yet.\r\n    ///  Returns the NFT to original owner.\r\n    /// @notice This is a state-modifying function that can\r\n    ///  be called while the contract is paused.\r\n    /// @param _tokenId - ID of token on auction\r\n    function cancelAuction(uint256 _tokenId)\r\n        external\r\n    {\r\n        Auction storage auction = tokenIdToAuction[_tokenId];\r\n        require(_isOnAuction(auction));\r\n        address seller = auction.seller;\r\n        require(msg.sender == seller);\r\n        _cancelAuction(_tokenId, seller);\r\n    }\r\n\r\n    /// @dev Cancels an auction when the contract is paused.\r\n    ///  Only the owner may do this, and NFTs are returned to\r\n    ///  the seller. This should only be used in emergencies.\r\n    /// @param _tokenId - ID of the NFT on auction to cancel.\r\n    function cancelAuctionWhenPaused(uint256 _tokenId)\r\n        whenPaused\r\n        onlyOwner\r\n        external\r\n    {\r\n        Auction storage auction = tokenIdToAuction[_tokenId];\r\n        require(_isOnAuction(auction));\r\n        _cancelAuction(_tokenId, auction.seller);\r\n    }\r\n\r\n    /// @dev Returns auction info for an NFT on auction.\r\n    /// @param _tokenId - ID of NFT on auction.\r\n    function getAuction(uint256 _tokenId)\r\n        external\r\n        view\r\n        returns\r\n    (\r\n        address seller,\r\n        uint256 startingPrice,\r\n        uint256 endingPrice,\r\n        uint256 duration,\r\n        uint256 startedAt\r\n    ) {\r\n        Auction storage auction = tokenIdToAuction[_tokenId];\r\n        require(_isOnAuction(auction));\r\n        return (\r\n            auction.seller,\r\n            auction.startingPrice,\r\n            auction.endingPrice,\r\n            auction.duration,\r\n            auction.startedAt\r\n        );\r\n    }\r\n\r\n    /// @dev Returns the current price of an auction.\r\n    /// @param _tokenId - ID of the token price we are checking.\r\n    function getCurrentPrice(uint256 _tokenId)\r\n        external\r\n        view\r\n        returns (uint256)\r\n    {\r\n        Auction storage auction = tokenIdToAuction[_tokenId];\r\n        require(_isOnAuction(auction));\r\n        return _currentPrice(auction);\r\n    }\r\n\r\n}\r\n\r\n\r\n/// @title Reverse auction modified for siring\r\n/// @notice We omit a fallback function to prevent accidental sends to this contract.\r\ncontract SiringClockAuction is ClockAuction {\r\n\r\n    // @dev Sanity check that allows us to ensure that we are pointing to the\r\n    //  right auction in our setSiringAuctionAddress() call.\r\n    bool public isSiringClockAuction = true;\r\n\r\n    // Delegate constructor\r\n    function SiringClockAuction() public\r\n        ClockAuction(address(0x41b4f8413520f0a92b279c17fae1df92b1883791dc), 0) {}\r\n\r\n    /// @dev Creates and begins a new auction. Since this function is wrapped,\r\n    /// require sender to be KittyCore contract.\r\n    /// @param _tokenId - ID of token to auction, sender must be owner.\r\n    /// @param _startingPrice - Price of item (in wei) at beginning of auction.\r\n    /// @param _endingPrice - Price of item (in wei) at end of auction.\r\n    /// @param _duration - Length of auction (in seconds).\r\n    /// @param _seller - Seller, if not the message sender\r\n    function createAuction(\r\n        uint256 _tokenId,\r\n        uint256 _startingPrice,\r\n        uint256 _endingPrice,\r\n        uint256 _duration,\r\n        address _seller\r\n    )\r\n        external\r\n    {\r\n        // Sanity check that no inputs overflow how many bits we've allocated\r\n        // to store them in the auction struct.\r\n        require(_startingPrice == uint256(uint128(_startingPrice)));\r\n        require(_endingPrice == uint256(uint128(_endingPrice)));\r\n        require(_duration == uint256(uint64(_duration)));\r\n\r\n        require(msg.sender == address(nonFungibleContract));\r\n        _escrow(_seller, _tokenId);\r\n        Auction memory auction = Auction(\r\n            _seller,\r\n            uint128(_startingPrice),\r\n            uint128(_endingPrice),\r\n            uint64(_duration),\r\n            uint64(now)\r\n        );\r\n        _addAuction(_tokenId, auction);\r\n    }\r\n\r\n    /// @dev Places a bid for siring. Requires the sender\r\n    /// is the KittyCore contract because all bid methods\r\n    /// should be wrapped. Also returns the kitty to the\r\n    /// seller rather than the winner.\r\n    function bid(uint256 _tokenId)\r\n        external\r\n        payable\r\n    {\r\n        require(msg.sender == address(nonFungibleContract));\r\n        address seller = tokenIdToAuction[_tokenId].seller;\r\n        // _bid checks that token ID is valid and will throw if bid fails\r\n        _bid(_tokenId, msg.value);\r\n        // We transfer the kitty back to the seller, the winner will get\r\n        // the offspring\r\n        _transfer(seller, _tokenId);\r\n    }\r\n\r\n}",
  "sourcePath": "C:\\Users\\xing9\\Documents\\GitHub\\Tron_Idol\\contracts\\SiringClockAuction.sol",
  "compiler": {
    "name": "solc",
    "version": "0.4.24-develop.2018.8.28+commit.3ba0cdec.mod.Emscripten.clang"
  },
  "schemaVersion": "2.0.1",
  "updatedAt": "2018-12-28T08:05:45.932Z"
}